{
  "_format": "hh-sol-artifact-1",
  "contractName": "MyNFT",
  "sourceName": "code/MyNFT.sol",
  "abi": [
    {
      "inputs": [],
      "stateMutability": "nonpayable",
      "type": "constructor"
    },
    {
      "anonymous": false,
      "inputs": [
        {
          "indexed": true,
          "internalType": "address",
          "name": "owner",
          "type": "address"
        },
        {
          "indexed": true,
          "internalType": "address",
          "name": "approved",
          "type": "address"
        },
        {
          "indexed": true,
          "internalType": "uint256",
          "name": "tokenId",
          "type": "uint256"
        }
      ],
      "name": "Approval",
      "type": "event"
    },
    {
      "anonymous": false,
      "inputs": [
        {
          "indexed": true,
          "internalType": "address",
          "name": "owner",
          "type": "address"
        },
        {
          "indexed": true,
          "internalType": "address",
          "name": "operator",
          "type": "address"
        },
        {
          "indexed": false,
          "internalType": "bool",
          "name": "approved",
          "type": "bool"
        }
      ],
      "name": "ApprovalForAll",
      "type": "event"
    },
    {
      "anonymous": false,
      "inputs": [
        {
          "indexed": false,
          "internalType": "uint256",
          "name": "_fromTokenId",
          "type": "uint256"
        },
        {
          "indexed": false,
          "internalType": "uint256",
          "name": "_toTokenId",
          "type": "uint256"
        }
      ],
      "name": "BatchMetadataUpdate",
      "type": "event"
    },
    {
      "anonymous": false,
      "inputs": [
        {
          "indexed": false,
          "internalType": "uint256",
          "name": "_tokenId",
          "type": "uint256"
        }
      ],
      "name": "MetadataUpdate",
      "type": "event"
    },
    {
      "anonymous": false,
      "inputs": [
        {
          "indexed": true,
          "internalType": "address",
          "name": "previousOwner",
          "type": "address"
        },
        {
          "indexed": true,
          "internalType": "address",
          "name": "newOwner",
          "type": "address"
        }
      ],
      "name": "OwnershipTransferred",
      "type": "event"
    },
    {
      "anonymous": false,
      "inputs": [
        {
          "indexed": true,
          "internalType": "address",
          "name": "from",
          "type": "address"
        },
        {
          "indexed": true,
          "internalType": "address",
          "name": "to",
          "type": "address"
        },
        {
          "indexed": true,
          "internalType": "uint256",
          "name": "tokenId",
          "type": "uint256"
        }
      ],
      "name": "Transfer",
      "type": "event"
    },
    {
      "inputs": [
        {
          "internalType": "address",
          "name": "to",
          "type": "address"
        },
        {
          "internalType": "uint256",
          "name": "tokenId",
          "type": "uint256"
        }
      ],
      "name": "approve",
      "outputs": [],
      "stateMutability": "nonpayable",
      "type": "function"
    },
    {
      "inputs": [
        {
          "internalType": "address",
          "name": "owner",
          "type": "address"
        }
      ],
      "name": "balanceOf",
      "outputs": [
        {
          "internalType": "uint256",
          "name": "",
          "type": "uint256"
        }
      ],
      "stateMutability": "view",
      "type": "function"
    },
    {
      "inputs": [],
      "name": "currentTokenId",
      "outputs": [
        {
          "internalType": "uint256",
          "name": "",
          "type": "uint256"
        }
      ],
      "stateMutability": "view",
      "type": "function"
    },
    {
      "inputs": [
        {
          "internalType": "uint256",
          "name": "tokenId",
          "type": "uint256"
        }
      ],
      "name": "getApproved",
      "outputs": [
        {
          "internalType": "address",
          "name": "",
          "type": "address"
        }
      ],
      "stateMutability": "view",
      "type": "function"
    },
    {
      "inputs": [
        {
          "internalType": "address",
          "name": "owner",
          "type": "address"
        },
        {
          "internalType": "address",
          "name": "operator",
          "type": "address"
        }
      ],
      "name": "isApprovedForAll",
      "outputs": [
        {
          "internalType": "bool",
          "name": "",
          "type": "bool"
        }
      ],
      "stateMutability": "view",
      "type": "function"
    },
    {
      "inputs": [
        {
          "internalType": "address",
          "name": "to",
          "type": "address"
        },
        {
          "internalType": "string",
          "name": "tokenURI",
          "type": "string"
        }
      ],
      "name": "mintNFT",
      "outputs": [
        {
          "internalType": "uint256",
          "name": "",
          "type": "uint256"
        }
      ],
      "stateMutability": "nonpayable",
      "type": "function"
    },
    {
      "inputs": [],
      "name": "name",
      "outputs": [
        {
          "internalType": "string",
          "name": "",
          "type": "string"
        }
      ],
      "stateMutability": "view",
      "type": "function"
    },
    {
      "inputs": [],
      "name": "owner",
      "outputs": [
        {
          "internalType": "address",
          "name": "",
          "type": "address"
        }
      ],
      "stateMutability": "view",
      "type": "function"
    },
    {
      "inputs": [
        {
          "internalType": "uint256",
          "name": "tokenId",
          "type": "uint256"
        }
      ],
      "name": "ownerOf",
      "outputs": [
        {
          "internalType": "address",
          "name": "",
          "type": "address"
        }
      ],
      "stateMutability": "view",
      "type": "function"
    },
    {
      "inputs": [],
      "name": "renounceOwnership",
      "outputs": [],
      "stateMutability": "nonpayable",
      "type": "function"
    },
    {
      "inputs": [
        {
          "internalType": "address",
          "name": "from",
          "type": "address"
        },
        {
          "internalType": "address",
          "name": "to",
          "type": "address"
        },
        {
          "internalType": "uint256",
          "name": "tokenId",
          "type": "uint256"
        }
      ],
      "name": "safeTransferFrom",
      "outputs": [],
      "stateMutability": "nonpayable",
      "type": "function"
    },
    {
      "inputs": [
        {
          "internalType": "address",
          "name": "from",
          "type": "address"
        },
        {
          "internalType": "address",
          "name": "to",
          "type": "address"
        },
        {
          "internalType": "uint256",
          "name": "tokenId",
          "type": "uint256"
        },
        {
          "internalType": "bytes",
          "name": "data",
          "type": "bytes"
        }
      ],
      "name": "safeTransferFrom",
      "outputs": [],
      "stateMutability": "nonpayable",
      "type": "function"
    },
    {
      "inputs": [
        {
          "internalType": "address",
          "name": "operator",
          "type": "address"
        },
        {
          "internalType": "bool",
          "name": "approved",
          "type": "bool"
        }
      ],
      "name": "setApprovalForAll",
      "outputs": [],
      "stateMutability": "nonpayable",
      "type": "function"
    },
    {
      "inputs": [
        {
          "internalType": "bytes4",
          "name": "interfaceId",
          "type": "bytes4"
        }
      ],
      "name": "supportsInterface",
      "outputs": [
        {
          "internalType": "bool",
          "name": "",
          "type": "bool"
        }
      ],
      "stateMutability": "view",
      "type": "function"
    },
    {
      "inputs": [],
      "name": "symbol",
      "outputs": [
        {
          "internalType": "string",
          "name": "",
          "type": "string"
        }
      ],
      "stateMutability": "view",
      "type": "function"
    },
    {
      "inputs": [
        {
          "internalType": "uint256",
          "name": "tokenId",
          "type": "uint256"
        }
      ],
      "name": "tokenURI",
      "outputs": [
        {
          "internalType": "string",
          "name": "",
          "type": "string"
        }
      ],
      "stateMutability": "view",
      "type": "function"
    },
    {
      "inputs": [
        {
          "internalType": "address",
          "name": "from",
          "type": "address"
        },
        {
          "internalType": "address",
          "name": "to",
          "type": "address"
        },
        {
          "internalType": "uint256",
          "name": "tokenId",
          "type": "uint256"
        }
      ],
      "name": "transferFrom",
      "outputs": [],
      "stateMutability": "nonpayable",
      "type": "function"
    },
    {
      "inputs": [
        {
          "internalType": "address",
          "name": "newOwner",
          "type": "address"
        }
      ],
      "name": "transferOwnership",
      "outputs": [],
      "stateMutability": "nonpayable",
      "type": "function"
    }
  ],
  "bytecode": "0x608060405234801561001057600080fd5b506040518060400160405280600a81526020017f546f6b656e697a653432000000000000000000000000000000000000000000008152506040518060400160405280600481526020017f544b343200000000000000000000000000000000000000000000000000000000815250816000908161008c91906103de565b50806001908161009c91906103de565b5050506100bb6100b06100c060201b60201c565b6100c860201b60201c565b6104b0565b600033905090565b6000600760009054906101000a900473ffffffffffffffffffffffffffffffffffffffff16905081600760006101000a81548173ffffffffffffffffffffffffffffffffffffffff021916908373ffffffffffffffffffffffffffffffffffffffff1602179055508173ffffffffffffffffffffffffffffffffffffffff168173ffffffffffffffffffffffffffffffffffffffff167f8be0079c531659141344cd1fd0a4f28419497f9722a3daafe3b4186f6b6457e060405160405180910390a35050565b600081519050919050565b7f4e487b7100000000000000000000000000000000000000000000000000000000600052604160045260246000fd5b7f4e487b7100000000000000000000000000000000000000000000000000000000600052602260045260246000fd5b6000600282049050600182168061020f57607f821691505b602082108103610222576102216101c8565b5b50919050565b60008190508160005260206000209050919050565b60006020601f8301049050919050565b600082821b905092915050565b60006008830261028a7fffffffffffffffffffffffffffffffffffffffffffffffffffffffffffffffff8261024d565b610294868361024d565b95508019841693508086168417925050509392505050565b6000819050919050565b6000819050919050565b60006102db6102d66102d1846102ac565b6102b6565b6102ac565b9050919050565b6000819050919050565b6102f5836102c0565b610309610301826102e2565b84845461025a565b825550505050565b600090565b61031e610311565b6103298184846102ec565b505050565b5b8181101561034d57610342600082610316565b60018101905061032f565b5050565b601f8211156103925761036381610228565b61036c8461023d565b8101602085101561037b578190505b61038f6103878561023d565b83018261032e565b50505b505050565b600082821c905092915050565b60006103b560001984600802610397565b1980831691505092915050565b60006103ce83836103a4565b9150826002028217905092915050565b6103e78261018e565b67ffffffffffffffff811115610400576103ff610199565b5b61040a82546101f7565b610415828285610351565b600060209050601f8311600181146104485760008415610436578287015190505b61044085826103c2565b8655506104a8565b601f19841661045686610228565b60005b8281101561047e57848901518255600182019150602085019450602081019050610459565b8683101561049b5784890151610497601f8916826103a4565b8355505b6001600288020188555050505b505050505050565b612f43806104bf6000396000f3fe608060405234801561001057600080fd5b50600436106101155760003560e01c8063715018a6116100a2578063b88d4fde11610071578063b88d4fde146102cc578063c87b56dd146102e8578063e985e9c514610318578063eacabe1414610348578063f2fde38b1461037857610115565b8063715018a61461026a5780638da5cb5b1461027457806395d89b4114610292578063a22cb465146102b057610115565b8063095ea7b3116100e9578063095ea7b3146101b657806323b872dd146101d257806342842e0e146101ee5780636352211e1461020a57806370a082311461023a57610115565b80629a9b7b1461011a57806301ffc9a71461013857806306fdde0314610168578063081812fc14610186575b600080fd5b610122610394565b60405161012f9190611c7e565b60405180910390f35b610152600480360381019061014d9190611d05565b61039e565b60405161015f9190611d4d565b60405180910390f35b6101706103ff565b60405161017d9190611df8565b60405180910390f35b6101a0600480360381019061019b9190611e46565b610491565b6040516101ad9190611eb4565b60405180910390f35b6101d060048036038101906101cb9190611efb565b6104d7565b005b6101ec60048036038101906101e79190611f3b565b6105ee565b005b61020860048036038101906102039190611f3b565b61064e565b005b610224600480360381019061021f9190611e46565b61066e565b6040516102319190611eb4565b60405180910390f35b610254600480360381019061024f9190611f8e565b6106f4565b6040516102619190611c7e565b60405180910390f35b6102726107ab565b005b61027c6107bf565b6040516102899190611eb4565b60405180910390f35b61029a6107e9565b6040516102a79190611df8565b60405180910390f35b6102ca60048036038101906102c59190611fe7565b61087b565b005b6102e660048036038101906102e1919061215c565b610891565b005b61030260048036038101906102fd9190611e46565b6108f3565b60405161030f9190611df8565b60405180910390f35b610332600480360381019061032d91906121df565b610a05565b60405161033f9190611d4d565b60405180910390f35b610362600480360381019061035d91906122c0565b610a99565b60405161036f9190611c7e565b60405180910390f35b610392600480360381019061038d9190611f8e565b610ae2565b005b6000600854905090565b6000634906490660e01b7bffffffffffffffffffffffffffffffffffffffffffffffffffffffff1916827bffffffffffffffffffffffffffffffffffffffffffffffffffffffff191614806103f857506103f782610b65565b5b9050919050565b60606000805461040e9061234b565b80601f016020809104026020016040519081016040528092919081815260200182805461043a9061234b565b80156104875780601f1061045c57610100808354040283529160200191610487565b820191906000526020600020905b81548152906001019060200180831161046a57829003601f168201915b5050505050905090565b600061049c82610c47565b6004600083815260200190815260200160002060009054906101000a900473ffffffffffffffffffffffffffffffffffffffff169050919050565b60006104e28261066e565b90508073ffffffffffffffffffffffffffffffffffffffff168373ffffffffffffffffffffffffffffffffffffffff1603610552576040517f08c379a0000000000000000000000000000000000000000000000000000000008152600401610549906123ee565b60405180910390fd5b8073ffffffffffffffffffffffffffffffffffffffff16610571610c92565b73ffffffffffffffffffffffffffffffffffffffff1614806105a0575061059f8161059a610c92565b610a05565b5b6105df576040517f08c379a00000000000000000000000000000000000000000000000000000000081526004016105d690612480565b60405180910390fd5b6105e98383610c9a565b505050565b6105ff6105f9610c92565b82610d53565b61063e576040517f08c379a000000000000000000000000000000000000000000000000000000000815260040161063590612512565b60405180910390fd5b610649838383610de8565b505050565b61066983838360405180602001604052806000815250610891565b505050565b60008061067a836110e1565b9050600073ffffffffffffffffffffffffffffffffffffffff168173ffffffffffffffffffffffffffffffffffffffff16036106eb576040517f08c379a00000000000000000000000000000000000000000000000000000000081526004016106e29061257e565b60405180910390fd5b80915050919050565b60008073ffffffffffffffffffffffffffffffffffffffff168273ffffffffffffffffffffffffffffffffffffffff1603610764576040517f08c379a000000000000000000000000000000000000000000000000000000000815260040161075b90612610565b60405180910390fd5b600360008373ffffffffffffffffffffffffffffffffffffffff1673ffffffffffffffffffffffffffffffffffffffff168152602001908152602001600020549050919050565b6107b361111e565b6107bd600061119c565b565b6000600760009054906101000a900473ffffffffffffffffffffffffffffffffffffffff16905090565b6060600180546107f89061234b565b80601f01602080910402602001604051908101604052809291908181526020018280546108249061234b565b80156108715780601f1061084657610100808354040283529160200191610871565b820191906000526020600020905b81548152906001019060200180831161085457829003601f168201915b5050505050905090565b61088d610886610c92565b8383611262565b5050565b6108a261089c610c92565b83610d53565b6108e1576040517f08c379a00000000000000000000000000000000000000000000000000000000081526004016108d890612512565b60405180910390fd5b6108ed848484846113ce565b50505050565b60606108fe82610c47565b600060066000848152602001908152602001600020805461091e9061234b565b80601f016020809104026020016040519081016040528092919081815260200182805461094a9061234b565b80156109975780601f1061096c57610100808354040283529160200191610997565b820191906000526020600020905b81548152906001019060200180831161097a57829003601f168201915b5050505050905060006109a861142a565b905060008151036109bd578192505050610a00565b6000825111156109f25780826040516020016109da92919061266c565b60405160208183030381529060405292505050610a00565b6109fb84611441565b925050505b919050565b6000600560008473ffffffffffffffffffffffffffffffffffffffff1673ffffffffffffffffffffffffffffffffffffffff16815260200190815260200160002060008373ffffffffffffffffffffffffffffffffffffffff1673ffffffffffffffffffffffffffffffffffffffff16815260200190815260200160002060009054906101000a900460ff16905092915050565b6000610aa361111e565b60006008549050600160086000828254610abd91906126bf565b92505081905550610ace84826114a9565b610ad881846114c7565b8091505092915050565b610aea61111e565b600073ffffffffffffffffffffffffffffffffffffffff168173ffffffffffffffffffffffffffffffffffffffff1603610b59576040517f08c379a0000000000000000000000000000000000000000000000000000000008152600401610b5090612765565b60405180910390fd5b610b628161119c565b50565b60007f80ac58cd000000000000000000000000000000000000000000000000000000007bffffffffffffffffffffffffffffffffffffffffffffffffffffffff1916827bffffffffffffffffffffffffffffffffffffffffffffffffffffffff19161480610c3057507f5b5e139f000000000000000000000000000000000000000000000000000000007bffffffffffffffffffffffffffffffffffffffffffffffffffffffff1916827bffffffffffffffffffffffffffffffffffffffffffffffffffffffff1916145b80610c405750610c3f8261156b565b5b9050919050565b610c50816115d5565b610c8f576040517f08c379a0000000000000000000000000000000000000000000000000000000008152600401610c869061257e565b60405180910390fd5b50565b600033905090565b816004600083815260200190815260200160002060006101000a81548173ffffffffffffffffffffffffffffffffffffffff021916908373ffffffffffffffffffffffffffffffffffffffff160217905550808273ffffffffffffffffffffffffffffffffffffffff16610d0d8361066e565b73ffffffffffffffffffffffffffffffffffffffff167f8c5be1e5ebec7d5bd14f71427d1e84f3dd0314c0f7b2291e5b200ac8c7c3b92560405160405180910390a45050565b600080610d5f8361066e565b90508073ffffffffffffffffffffffffffffffffffffffff168473ffffffffffffffffffffffffffffffffffffffff161480610da15750610da08185610a05565b5b80610ddf57508373ffffffffffffffffffffffffffffffffffffffff16610dc784610491565b73ffffffffffffffffffffffffffffffffffffffff16145b91505092915050565b8273ffffffffffffffffffffffffffffffffffffffff16610e088261066e565b73ffffffffffffffffffffffffffffffffffffffff1614610e5e576040517f08c379a0000000000000000000000000000000000000000000000000000000008152600401610e55906127f7565b60405180910390fd5b600073ffffffffffffffffffffffffffffffffffffffff168273ffffffffffffffffffffffffffffffffffffffff1603610ecd576040517f08c379a0000000000000000000000000000000000000000000000000000000008152600401610ec490612889565b60405180910390fd5b610eda8383836001611616565b8273ffffffffffffffffffffffffffffffffffffffff16610efa8261066e565b73ffffffffffffffffffffffffffffffffffffffff1614610f50576040517f08c379a0000000000000000000000000000000000000000000000000000000008152600401610f47906127f7565b60405180910390fd5b6004600082815260200190815260200160002060006101000a81549073ffffffffffffffffffffffffffffffffffffffff02191690556001600360008573ffffffffffffffffffffffffffffffffffffffff1673ffffffffffffffffffffffffffffffffffffffff168152602001908152602001600020600082825403925050819055506001600360008473ffffffffffffffffffffffffffffffffffffffff1673ffffffffffffffffffffffffffffffffffffffff16815260200190815260200160002060008282540192505081905550816002600083815260200190815260200160002060006101000a81548173ffffffffffffffffffffffffffffffffffffffff021916908373ffffffffffffffffffffffffffffffffffffffff160217905550808273ffffffffffffffffffffffffffffffffffffffff168473ffffffffffffffffffffffffffffffffffffffff167fddf252ad1be2c89b69c2b068fc378daa952ba7f163c4a11628f55a4df523b3ef60405160405180910390a46110dc838383600161161c565b505050565b60006002600083815260200190815260200160002060009054906101000a900473ffffffffffffffffffffffffffffffffffffffff169050919050565b611126610c92565b73ffffffffffffffffffffffffffffffffffffffff166111446107bf565b73ffffffffffffffffffffffffffffffffffffffff161461119a576040517f08c379a0000000000000000000000000000000000000000000000000000000008152600401611191906128f5565b60405180910390fd5b565b6000600760009054906101000a900473ffffffffffffffffffffffffffffffffffffffff16905081600760006101000a81548173ffffffffffffffffffffffffffffffffffffffff021916908373ffffffffffffffffffffffffffffffffffffffff1602179055508173ffffffffffffffffffffffffffffffffffffffff168173ffffffffffffffffffffffffffffffffffffffff167f8be0079c531659141344cd1fd0a4f28419497f9722a3daafe3b4186f6b6457e060405160405180910390a35050565b8173ffffffffffffffffffffffffffffffffffffffff168373ffffffffffffffffffffffffffffffffffffffff16036112d0576040517f08c379a00000000000000000000000000000000000000000000000000000000081526004016112c790612961565b60405180910390fd5b80600560008573ffffffffffffffffffffffffffffffffffffffff1673ffffffffffffffffffffffffffffffffffffffff16815260200190815260200160002060008473ffffffffffffffffffffffffffffffffffffffff1673ffffffffffffffffffffffffffffffffffffffff16815260200190815260200160002060006101000a81548160ff0219169083151502179055508173ffffffffffffffffffffffffffffffffffffffff168373ffffffffffffffffffffffffffffffffffffffff167f17307eab39ab6107e8899845ad3d59bd9653f200f220920489ca2b5937696c31836040516113c19190611d4d565b60405180910390a3505050565b6113d9848484610de8565b6113e584848484611622565b611424576040517f08c379a000000000000000000000000000000000000000000000000000000000815260040161141b906129f3565b60405180910390fd5b50505050565b606060405180602001604052806000815250905090565b606061144c82610c47565b600061145661142a565b9050600081511161147657604051806020016040528060008152506114a1565b80611480846117a9565b60405160200161149192919061266c565b6040516020818303038152906040525b915050919050565b6114c3828260405180602001604052806000815250611877565b5050565b6114d0826115d5565b61150f576040517f08c379a000000000000000000000000000000000000000000000000000000000815260040161150690612a85565b60405180910390fd5b8060066000848152602001908152602001600020908161152f9190612c51565b507ff8e1a15aba9398e019f0b49df1a4fde98ee17ae345cb5f6b5e2c27f5033e8ce78260405161155f9190611c7e565b60405180910390a15050565b60007f01ffc9a7000000000000000000000000000000000000000000000000000000007bffffffffffffffffffffffffffffffffffffffffffffffffffffffff1916827bffffffffffffffffffffffffffffffffffffffffffffffffffffffff1916149050919050565b60008073ffffffffffffffffffffffffffffffffffffffff166115f7836110e1565b73ffffffffffffffffffffffffffffffffffffffff1614159050919050565b50505050565b50505050565b60006116438473ffffffffffffffffffffffffffffffffffffffff166118d2565b1561179c578373ffffffffffffffffffffffffffffffffffffffff1663150b7a0261166c610c92565b8786866040518563ffffffff1660e01b815260040161168e9493929190612d78565b6020604051808303816000875af19250505080156116ca57506040513d601f19601f820116820180604052508101906116c79190612dd9565b60015b61174c573d80600081146116fa576040519150601f19603f3d011682016040523d82523d6000602084013e6116ff565b606091505b506000815103611744576040517f08c379a000000000000000000000000000000000000000000000000000000000815260040161173b906129f3565b60405180910390fd5b805181602001fd5b63150b7a0260e01b7bffffffffffffffffffffffffffffffffffffffffffffffffffffffff1916817bffffffffffffffffffffffffffffffffffffffffffffffffffffffff1916149150506117a1565b600190505b949350505050565b6060600060016117b8846118f5565b01905060008167ffffffffffffffff8111156117d7576117d6612031565b5b6040519080825280601f01601f1916602001820160405280156118095781602001600182028036833780820191505090505b509050600082602001820190505b60011561186c578080600190039150507f3031323334353637383961626364656600000000000000000000000000000000600a86061a8153600a85816118605761185f612e06565b5b04945060008503611817575b819350505050919050565b6118818383611a48565b61188e6000848484611622565b6118cd576040517f08c379a00000000000000000000000000000000000000000000000000000000081526004016118c4906129f3565b60405180910390fd5b505050565b6000808273ffffffffffffffffffffffffffffffffffffffff163b119050919050565b600080600090507a184f03e93ff9f4daa797ed6e38ed64bf6a1f0100000000000000008310611953577a184f03e93ff9f4daa797ed6e38ed64bf6a1f010000000000000000838161194957611948612e06565b5b0492506040810190505b6d04ee2d6d415b85acef81000000008310611990576d04ee2d6d415b85acef8100000000838161198657611985612e06565b5b0492506020810190505b662386f26fc1000083106119bf57662386f26fc1000083816119b5576119b4612e06565b5b0492506010810190505b6305f5e10083106119e8576305f5e10083816119de576119dd612e06565b5b0492506008810190505b6127108310611a0d576127108381611a0357611a02612e06565b5b0492506004810190505b60648310611a305760648381611a2657611a25612e06565b5b0492506002810190505b600a8310611a3f576001810190505b80915050919050565b600073ffffffffffffffffffffffffffffffffffffffff168273ffffffffffffffffffffffffffffffffffffffff1603611ab7576040517f08c379a0000000000000000000000000000000000000000000000000000000008152600401611aae90612e81565b60405180910390fd5b611ac0816115d5565b15611b00576040517f08c379a0000000000000000000000000000000000000000000000000000000008152600401611af790612eed565b60405180910390fd5b611b0e600083836001611616565b611b17816115d5565b15611b57576040517f08c379a0000000000000000000000000000000000000000000000000000000008152600401611b4e90612eed565b60405180910390fd5b6001600360008473ffffffffffffffffffffffffffffffffffffffff1673ffffffffffffffffffffffffffffffffffffffff16815260200190815260200160002060008282540192505081905550816002600083815260200190815260200160002060006101000a81548173ffffffffffffffffffffffffffffffffffffffff021916908373ffffffffffffffffffffffffffffffffffffffff160217905550808273ffffffffffffffffffffffffffffffffffffffff16600073ffffffffffffffffffffffffffffffffffffffff167fddf252ad1be2c89b69c2b068fc378daa952ba7f163c4a11628f55a4df523b3ef60405160405180910390a4611c6160008383600161161c565b5050565b6000819050919050565b611c7881611c65565b82525050565b6000602082019050611c936000830184611c6f565b92915050565b6000604051905090565b600080fd5b600080fd5b60007fffffffff0000000000000000000000000000000000000000000000000000000082169050919050565b611ce281611cad565b8114611ced57600080fd5b50565b600081359050611cff81611cd9565b92915050565b600060208284031215611d1b57611d1a611ca3565b5b6000611d2984828501611cf0565b91505092915050565b60008115159050919050565b611d4781611d32565b82525050565b6000602082019050611d626000830184611d3e565b92915050565b600081519050919050565b600082825260208201905092915050565b60005b83811015611da2578082015181840152602081019050611d87565b60008484015250505050565b6000601f19601f8301169050919050565b6000611dca82611d68565b611dd48185611d73565b9350611de4818560208601611d84565b611ded81611dae565b840191505092915050565b60006020820190508181036000830152611e128184611dbf565b905092915050565b611e2381611c65565b8114611e2e57600080fd5b50565b600081359050611e4081611e1a565b92915050565b600060208284031215611e5c57611e5b611ca3565b5b6000611e6a84828501611e31565b91505092915050565b600073ffffffffffffffffffffffffffffffffffffffff82169050919050565b6000611e9e82611e73565b9050919050565b611eae81611e93565b82525050565b6000602082019050611ec96000830184611ea5565b92915050565b611ed881611e93565b8114611ee357600080fd5b50565b600081359050611ef581611ecf565b92915050565b60008060408385031215611f1257611f11611ca3565b5b6000611f2085828601611ee6565b9250506020611f3185828601611e31565b9150509250929050565b600080600060608486031215611f5457611f53611ca3565b5b6000611f6286828701611ee6565b9350506020611f7386828701611ee6565b9250506040611f8486828701611e31565b9150509250925092565b600060208284031215611fa457611fa3611ca3565b5b6000611fb284828501611ee6565b91505092915050565b611fc481611d32565b8114611fcf57600080fd5b50565b600081359050611fe181611fbb565b92915050565b60008060408385031215611ffe57611ffd611ca3565b5b600061200c85828601611ee6565b925050602061201d85828601611fd2565b9150509250929050565b600080fd5b600080fd5b7f4e487b7100000000000000000000000000000000000000000000000000000000600052604160045260246000fd5b61206982611dae565b810181811067ffffffffffffffff8211171561208857612087612031565b5b80604052505050565b600061209b611c99565b90506120a78282612060565b919050565b600067ffffffffffffffff8211156120c7576120c6612031565b5b6120d082611dae565b9050602081019050919050565b82818337600083830152505050565b60006120ff6120fa846120ac565b612091565b90508281526020810184848401111561211b5761211a61202c565b5b6121268482856120dd565b509392505050565b600082601f83011261214357612142612027565b5b81356121538482602086016120ec565b91505092915050565b6000806000806080858703121561217657612175611ca3565b5b600061218487828801611ee6565b945050602061219587828801611ee6565b93505060406121a687828801611e31565b925050606085013567ffffffffffffffff8111156121c7576121c6611ca8565b5b6121d38782880161212e565b91505092959194509250565b600080604083850312156121f6576121f5611ca3565b5b600061220485828601611ee6565b925050602061221585828601611ee6565b9150509250929050565b600067ffffffffffffffff82111561223a57612239612031565b5b61224382611dae565b9050602081019050919050565b600061226361225e8461221f565b612091565b90508281526020810184848401111561227f5761227e61202c565b5b61228a8482856120dd565b509392505050565b600082601f8301126122a7576122a6612027565b5b81356122b7848260208601612250565b91505092915050565b600080604083850312156122d7576122d6611ca3565b5b60006122e585828601611ee6565b925050602083013567ffffffffffffffff81111561230657612305611ca8565b5b61231285828601612292565b9150509250929050565b7f4e487b7100000000000000000000000000000000000000000000000000000000600052602260045260246000fd5b6000600282049050600182168061236357607f821691505b6020821081036123765761237561231c565b5b50919050565b7f4552433732313a20617070726f76616c20746f2063757272656e74206f776e6560008201527f7200000000000000000000000000000000000000000000000000000000000000602082015250565b60006123d8602183611d73565b91506123e38261237c565b604082019050919050565b60006020820190508181036000830152612407816123cb565b9050919050565b7f4552433732313a20617070726f76652063616c6c6572206973206e6f7420746f60008201527f6b656e206f776e6572206f7220617070726f76656420666f7220616c6c000000602082015250565b600061246a603d83611d73565b91506124758261240e565b604082019050919050565b600060208201905081810360008301526124998161245d565b9050919050565b7f4552433732313a2063616c6c6572206973206e6f7420746f6b656e206f776e6560008201527f72206f7220617070726f76656400000000000000000000000000000000000000602082015250565b60006124fc602d83611d73565b9150612507826124a0565b604082019050919050565b6000602082019050818103600083015261252b816124ef565b9050919050565b7f4552433732313a20696e76616c696420746f6b656e2049440000000000000000600082015250565b6000612568601883611d73565b915061257382612532565b602082019050919050565b600060208201905081810360008301526125978161255b565b9050919050565b7f4552433732313a2061646472657373207a65726f206973206e6f74206120766160008201527f6c6964206f776e65720000000000000000000000000000000000000000000000602082015250565b60006125fa602983611d73565b91506126058261259e565b604082019050919050565b60006020820190508181036000830152612629816125ed565b9050919050565b600081905092915050565b600061264682611d68565b6126508185612630565b9350612660818560208601611d84565b80840191505092915050565b6000612678828561263b565b9150612684828461263b565b91508190509392505050565b7f4e487b7100000000000000000000000000000000000000000000000000000000600052601160045260246000fd5b60006126ca82611c65565b91506126d583611c65565b92508282019050808211156126ed576126ec612690565b5b92915050565b7f4f776e61626c653a206e6577206f776e657220697320746865207a65726f206160008201527f6464726573730000000000000000000000000000000000000000000000000000602082015250565b600061274f602683611d73565b915061275a826126f3565b604082019050919050565b6000602082019050818103600083015261277e81612742565b9050919050565b7f4552433732313a207472616e736665722066726f6d20696e636f72726563742060008201527f6f776e6572000000000000000000000000000000000000000000000000000000602082015250565b60006127e1602583611d73565b91506127ec82612785565b604082019050919050565b60006020820190508181036000830152612810816127d4565b9050919050565b7f4552433732313a207472616e7366657220746f20746865207a65726f2061646460008201527f7265737300000000000000000000000000000000000000000000000000000000602082015250565b6000612873602483611d73565b915061287e82612817565b604082019050919050565b600060208201905081810360008301526128a281612866565b9050919050565b7f4f776e61626c653a2063616c6c6572206973206e6f7420746865206f776e6572600082015250565b60006128df602083611d73565b91506128ea826128a9565b602082019050919050565b6000602082019050818103600083015261290e816128d2565b9050919050565b7f4552433732313a20617070726f766520746f2063616c6c657200000000000000600082015250565b600061294b601983611d73565b915061295682612915565b602082019050919050565b6000602082019050818103600083015261297a8161293e565b9050919050565b7f4552433732313a207472616e7366657220746f206e6f6e20455243373231526560008201527f63656976657220696d706c656d656e7465720000000000000000000000000000602082015250565b60006129dd603283611d73565b91506129e882612981565b604082019050919050565b60006020820190508181036000830152612a0c816129d0565b9050919050565b7f45524337323155524953746f726167653a2055524920736574206f66206e6f6e60008201527f6578697374656e7420746f6b656e000000000000000000000000000000000000602082015250565b6000612a6f602e83611d73565b9150612a7a82612a13565b604082019050919050565b60006020820190508181036000830152612a9e81612a62565b9050919050565b60008190508160005260206000209050919050565b60006020601f8301049050919050565b600082821b905092915050565b600060088302612b077fffffffffffffffffffffffffffffffffffffffffffffffffffffffffffffffff82612aca565b612b118683612aca565b95508019841693508086168417925050509392505050565b6000819050919050565b6000612b4e612b49612b4484611c65565b612b29565b611c65565b9050919050565b6000819050919050565b612b6883612b33565b612b7c612b7482612b55565b848454612ad7565b825550505050565b600090565b612b91612b84565b612b9c818484612b5f565b505050565b5b81811015612bc057612bb5600082612b89565b600181019050612ba2565b5050565b601f821115612c0557612bd681612aa5565b612bdf84612aba565b81016020851015612bee578190505b612c02612bfa85612aba565b830182612ba1565b50505b505050565b600082821c905092915050565b6000612c2860001984600802612c0a565b1980831691505092915050565b6000612c418383612c17565b9150826002028217905092915050565b612c5a82611d68565b67ffffffffffffffff811115612c7357612c72612031565b5b612c7d825461234b565b612c88828285612bc4565b600060209050601f831160018114612cbb5760008415612ca9578287015190505b612cb38582612c35565b865550612d1b565b601f198416612cc986612aa5565b60005b82811015612cf157848901518255600182019150602085019450602081019050612ccc565b86831015612d0e5784890151612d0a601f891682612c17565b8355505b6001600288020188555050505b505050505050565b600081519050919050565b600082825260208201905092915050565b6000612d4a82612d23565b612d548185612d2e565b9350612d64818560208601611d84565b612d6d81611dae565b840191505092915050565b6000608082019050612d8d6000830187611ea5565b612d9a6020830186611ea5565b612da76040830185611c6f565b8181036060830152612db98184612d3f565b905095945050505050565b600081519050612dd381611cd9565b92915050565b600060208284031215612def57612dee611ca3565b5b6000612dfd84828501612dc4565b91505092915050565b7f4e487b7100000000000000000000000000000000000000000000000000000000600052601260045260246000fd5b7f4552433732313a206d696e7420746f20746865207a65726f2061646472657373600082015250565b6000612e6b602083611d73565b9150612e7682612e35565b602082019050919050565b60006020820190508181036000830152612e9a81612e5e565b9050919050565b7f4552433732313a20746f6b656e20616c7265616479206d696e74656400000000600082015250565b6000612ed7601c83611d73565b9150612ee282612ea1565b602082019050919050565b60006020820190508181036000830152612f0681612eca565b905091905056fea26469706673582212206105e6c9e27de6dc166e6287e512bd7a4f8a6c64b3324667129c13a9f473381664736f6c634300081c0033",
  "linkReferences": {},
  "deployedLinkReferences": {}
}